:020000040000FA
:0400000084EF02F097
:08000800846FD8CF85F0E0CF32
:1000100083F00F019EBA2CEF00F0F2B2DEEF01F098
:10002000F0B03AEF02F0F0B2CBEF01F081B8D9EFC7
:1000300001F081BAC5EF01F00F019E9AF290F2949F
:10004000F292F090F0929E969E9C9E9E83C0E0FF5E
:10005000845185C0D8FF10000F01AE50AE6A000178
:10006000966F000E9F633CEF00F0955196639FEFF3
:1000700000F09F2BA1EF00F0010E9F6345EF00F011
:100080009F2B9651976FA1EF00F0020E9F6356EFE2
:1000900000F09F2B9651986F4E0E9863A1EF00F0E1
:1000A0008186838E0001966BA5EF00F0030E9F639F
:1000B00066EF00F09F2B9651996F460E9963A1EF62
:1000C00000F0839E0001966BA5EF00F0040E9F6385
:1000D00074EF00F09F2B96519A6F750E9963A1EF04
:1000E00000F0966BA5EF00F0050E9F637DEF00F02A
:1000F0009F2B96519B6FA1EF00F0060E9F6386EF3A
:1001000000F09F2B96519C6FA1EF00F0070E9F63AC
:100110008FEF00F09F2B96519D6FA1EF00F0080E1E
:100120009F6398EF00F09F2B96519E6FA1EF00F018
:10013000090E9F639FEF00F09F2BA1EF00F00001DD
:100140009F6B0A0E9F631CEF00F09751C3EC04F005
:100150009851C3EC04F09951C3EC04F09A51C3ECEC
:1001600004F09B51C3EC04F09C51C3EC04F09D518E
:10017000C3EC04F09E51C3EC04F09651C3EC04F0C0
:100180000001490E9763D1EF00F0730E9863CDEF35
:1001900000F015EC01F009EF01F026EC01F009EF99
:1001A00001F0550E9763E1EF00F0730E9863DDEFF9
:1001B00000F03BEC01F009EF01F04CEC01F009EF2D
:1001C00001F0520E9763F1EF00F0730E9863EDEFBC
:1001D00000F061EC01F009EF01F076EC01F009EFBD
:1001E00001F0500E9763FDEF00F06F0E986309EF7A
:1001F00001F08BEC01F009EF01F0540E976309EF69
:1002000001F06F0E986309EF01F0B7EC01F009EF10
:1002100001F00001966B976B986B996B9A6B9B6BD7
:100220009C6B9D6B9E6B9FEF00F000019B5100014A
:10023000B36F00019C510001B26F00019E5100019B
:10024000B16F000196510001B06F12000001C7515B
:100250003009C3EC04F00001C6513009C3EC04F0CE
:100260000001C5513009C3EC04F00001C45130094C
:10027000C3EC04F0120000019B510001AF6F0001BC
:100280009C510001AE6F00019E510001AD6F000155
:1002900096510001AC6F12000001C3513009C3EC4C
:1002A00004F00001C2513009C3EC04F00001C15157
:1002B0003009C3EC04F00001C0513009C3EC04F074
:1002C000120000019B510001BF6F00019C51000111
:1002D000BE6F00019D510001BD6F00019E510001E4
:1002E000BC6F000196510001BB6F12000001BF51AD
:1002F000C3EC04F00001BE51C3EC04F00001BD5199
:10030000C3EC04F00001BC51C3EC04F00001BB518C
:10031000C3EC04F012000001C7513009C3EC04F033
:100320000001C6513009C3EC04F00001C551300989
:10033000C3EC04F00001C4513009C3EC04F02A0EF0
:10034000C3EC04F00001C3513009C3EC04F0000118
:10035000C2513009C3EC04F00001C1513009C3ECB3
:1003600004F00001C0513009C3EC04F01200000198
:10037000B5513009C3EC04F00001B4513009C3ECAD
:1003800004F0430EC3EC04F01200821E640E84ECF1
:1003900004F01CEF00F00001A1BBD2EF01F0A13787
:1003A000D4EF01F0A16BA181640E84EC04F01CEF8A
:1003B00000F0640E84EC04F01CEF00F00001A1B327
:1003C000EAEF01F0A1B503EF02F0A1BB1CEF02F0D0
:1003D00035EF02F00001390EAE63F7EF01F0300E99
:1003E000AE6F330EAF6300EF02F035EF02F0330E65
:1003F000AF63FDEF01F035EF02F0AE2B35EF02F009
:10040000AF2B35EF02F00001390EB16310EF02F0AF
:10041000300EB16F390EB26319EF02F035EF02F012
:10042000390EB26316EF02F035EF02F0B12B35EF63
:1004300002F0B22B35EF02F00001390EBC6329EF58
:1004400002F0300EBC6F390EBD6332EF02F035EFB3
:1004500002F0390EBD632FEF02F035EF02F0BC2B36
:1004600035EF02F0BD2B35EF02F0640E84EC04F0A2
:100470001CEF00F00001A1B346EF02F0A1B559EF67
:1004800002F0A1BB6CEF02F07FEF02F00001300E32
:10049000AE6351EF02F0300EAF6354EF02F035EF70
:1004A00002F0AE0735EF02F0390EAE6FAF077FEF07
:1004B00002F00001300EB16364EF02F0300EB2635F
:1004C00067EF02F035EF02F0B10735EF02F0390EB9
:1004D000B16FB2077FEF02F00001300EBC6377EF1F
:1004E00002F0300EBD637AEF02F035EF02F0BC0788
:1004F00035EF02F0390EBC6FBD077FEF02F0640EDE
:1005000084EC04F01CEF00F06FEC03F0C7EC03F098
:1005100028EC03F092EC02F0DFEC04F06DEC04F058
:100520008AEF02F00F01C294C296C298C29AA0EC60
:1005300002F0C6EC02F026EC03F027EC03F0120008
:10054000FF0E84EC04F00F01C282C2B2A5EF02F0EC
:10055000FF0E84EC04F00F01C3500001936F935120
:100560000F0B3009C3EC04F093390F0B3009C3ECC7
:1005700004F00F01C4500001030B946F9451300933
:10058000C3EC04F0580EC3EC04F012000001C06B81
:10059000C16BC26BC36B00019351030D0F01F3508C
:1005A0000001936F0F01F4500001BA6F00019451E4
:1005B000030D0F01F3500001946F0001BA510001C7
:1005C00094270F01D898000193510A080F01D8B859
:1005D00010EF03F00001936F000E9363F6EF02F04B
:1005E000000E9463F6EF02F025EF03F0090EC163ED
:1005F0000DEF03F0C16B090EC2630AEF03F0C26B8B
:10060000090EC36307EF03F0C36BE1EF02F0C32BE6
:10061000E1EF02F0C22BE1EF02F0C12BE1EF02F0BB
:100620000001B86F0001000E946319EF03F020EF92
:1006300003F094070001B8510001936FF6EF02F048
:1006400093510001C06F25EF03F012001200120059
:1006500082B030EF03F084B041EF03F035EF03F0E8
:1006600084B047EF03F03BEF03F0AC94B896190E5B
:10067000AF6E4DEF03F0AC94B8960C0EAF6E4DEF2D
:1006800003F0AC84B896100EAF6E4DEF03F0AC845F
:10069000B896080EAF6E4DEF03F084B255EF03F03D
:1006A00084B264EF03F05AEF03F084B269EF03F011
:1006B0005FEF03F00001300E956F6EEF03F0000165
:1006C000310E956F6EEF03F00001320E956F6EEFF5
:1006D00003F00001330E956F6EEF03F012000F016F
:1006E000956A836A806A94809680968296829F6BD0
:1006F0000001A1810001000E916F83928390F19E11
:10070000FF0E936E0F019396819694928292959E1E
:10071000839E829C828EAC8AD09E0790AB8EAC98D2
:100720009D8AAB88F28CF288F086F088F286FF0E04
:10073000926EC280B50EC06E0A0EC16EF28E0001BE
:10074000300EAC6F300EAD6F300EAE6F300EAF6F3F
:10075000300EB06F300EB16F300EB26F300EB36F1F
:10076000300EBB6F300EBC6F300EBD6F300EBE6FE3
:10077000300EBF6FB46BB56B0001C06BC16BC26B49
:10078000C36B0001C46BC56BC66BC76B1200FF0E59
:1007900084EC04F0FF0E84EC04F0FF0E84EC04F013
:1007A000380E45EC04F0FF0E84EC04F0FF0E84ECF0
:1007B00004F0380E45EC04F0FF0E84EC04F0380E23
:1007C00045EC04F00F0E84EC04F0280E92EC04F0DB
:1007D0000F0E92EC04F0060E92EC04F0010E92EC77
:1007E00004F0020E92EC04F04CEC04F02F0E84ECBA
:1007F00004F0500E92EC04F0720E92EC04F06F0EC6
:1008000092EC04F0670E92EC04F02E0E92EC04F0E1
:10081000200E92EC04F04C0E92EC04F0610E92EC7F
:1008200004F0730E92EC04F0740E92EC04F050ECB1
:1008300004F056EC04F04CEC04F0300E92EC04F0B2
:10084000300E92EC04F02E0E92EC04F0300E92EC8E
:1008500004F0300E92EC04F0560E92EC04F0200EF0
:1008600092EC04F0300E92EC04F0300E92EC04F0B6
:100870002E0E92EC04F0300E92EC04F0300E92EC5E
:1008800004F0410E92EC04F012000F01836E838499
:1008900000008394000012000001FF0E916F12000F
:1008A0000001000E916F0F018390120050EC04F0D4
:1008B000C00E92EC04F04CEC04F0120056EC04F084
:1008C0000001100EAB6F200E92EC04F00001AB2F74
:1008D00063EF04F056EC04F012001E0E0001C86F26
:1008E000C80E84EC04F0C80E84EC04F0C80E84EC4E
:1008F00004F0C80E84EC04F0C80E84EC04F000018F
:10090000C82F70EF04F012000001876F1F0E866F72
:10091000862F88EF04F000000000872F86EF04F098
:100920000F0112000001886FCAEC04F0000191B3BE
:10093000C0EC04F0BAEC04F000018851F00B896FB0
:1009400089310F0183128384000083940000BAEC84
:1009500004F000018839F00B896F89310F0183128F
:100960008384000083940000BAEC04F0050E84EC4C
:1009700004F012000F0183968398839A839C1200DF
:100980000F01838012000F01AD6E0001ACA2C6EF13
:1009900004F012000F01958C0F01839083828384F1
:1009A0000000835000000001906F0F01839400014C
:1009B00090BDCCEF04F00F018392959C12000001D2
:1009C000A1B1F3EF04F0A1B3F8EF04F0A1B537EF54
:1009D00005F0A1B776EF05F0A1B9A0EF05F0A1BB36
:1009E000BFEF05F01200E8EC05F01DEC04F012007A
:1009F000E8EC05F0550E92EC04F04D0E92EC04F08C
:100A00000001AF5192EC04F00001AE5192EC04F001
:100A10002E0E92EC04F00001AD5192EC04F00001B6
:100A2000AC5192EC04F0560E92EC04F0200E92ECD5
:100A300004F0490E92EC04F00001C351300992EC2D
:100A400004F00001C251300992EC04F02E0E92EC39
:100A500004F00001C151300992EC04F00001C051D2
:100A6000300992EC04F0560E92EC04F01200E8EC1F
:100A700005F0490E92EC04F04D0E92EC04F00001EA
:100A8000B35192EC04F00001B25192EC04F02E0E3E
:100A900092EC04F00001B15192EC04F00001B0516D
:100AA00092EC04F0410E92EC04F0200E92EC04F073
:100AB000490E92EC04F00001C751300992EC04F0A9
:100AC0000001C651300992EC04F02E0E92EC04F0B5
:100AD0000001C551300992EC04F00001C451300905
:100AE00092EC04F0410E92EC04F01200E8EC05F0F8
:100AF0004C0E92EC04F0650E92EC04F0690E92EC50
:100B000004F0730E92EC04F0740E92EC04F0750E87
:100B100092EC04F06E0E92EC04F0670E92EC04F08E
:100B2000200E92EC04F0300E92EC04F02E0E92ECBB
:100B300004F0300E92EC04F0570E92EC04F0120028
:100B4000E8EC05F0540E92EC04F0650E92EC04F023
:100B50006D0E92EC04F0700E92EC04F0200E92EC0C
:100B600004F00001B551300992EC04F00001B451D9
:100B7000300992EC04F0430E92EC04F01200E8EC21
:100B800005F0520E92EC04F0200E92EC04F00001FD
:100B9000BF5192EC04F00001BE5192EC04F0000150
:100BA000BD5192EC04F00001BC5192EC04F0000144
:100BB000BB5192EC04F0200E92EC04F04F0E92EC3C
:100BC00004F0680E92EC04F06D0E92EC04F012004A
:100BD00050EC04F056EC04F04CEC04F0200E92ECD7
:100BE00004F0200E92EC04F0200E92EC04F0200EA3
:100BF00092EC04F0200E92EC04F0200E92EC04F043
:100C0000200E92EC04F0200E92EC04F0200E92ECF8
:100C100004F0200E92EC04F0200E92EC04F0200E72
:100C200092EC04F0200E92EC04F0200E92EC04F012
:100C3000200E92EC04F0200E92EC04F050EC04F044
:0A0C400056EC04F04CEC04F0120036
:00000001FF
